{
  "_format": "hh-sol-artifact-1",
  "contractName": "EncryptedSwap",
  "sourceName": "contracts/core/EncryptedSwap.sol",
  "abi": [
    {
      "inputs": [
        {
          "internalType": "address",
          "name": "_asyncNonceEngineAddress",
          "type": "address"
        }
      ],
      "stateMutability": "nonpayable",
      "type": "constructor"
    },
    {
      "inputs": [],
      "name": "IntentAlreadyProcessed",
      "type": "error"
    },
    {
      "inputs": [],
      "name": "IntentNotFound",
      "type": "error"
    },
    {
      "inputs": [],
      "name": "NotOwner",
      "type": "error"
    },
    {
      "anonymous": false,
      "inputs": [
        {
          "indexed": true,
          "internalType": "bytes32",
          "name": "intentId",
          "type": "bytes32"
        },
        {
          "indexed": false,
          "internalType": "uint256",
          "name": "timestamp",
          "type": "uint256"
        }
      ],
      "name": "SwapCancelled",
      "type": "event"
    },
    {
      "anonymous": false,
      "inputs": [
        {
          "indexed": true,
          "internalType": "bytes32",
          "name": "intentId",
          "type": "bytes32"
        },
        {
          "indexed": false,
          "internalType": "uint256",
          "name": "timestamp",
          "type": "uint256"
        }
      ],
      "name": "SwapExecuted",
      "type": "event"
    },
    {
      "anonymous": false,
      "inputs": [
        {
          "indexed": true,
          "internalType": "address",
          "name": "user",
          "type": "address"
        },
        {
          "indexed": true,
          "internalType": "bytes32",
          "name": "intentId",
          "type": "bytes32"
        },
        {
          "indexed": false,
          "internalType": "uint256",
          "name": "asyncNonce",
          "type": "uint256"
        },
        {
          "indexed": false,
          "internalType": "uint256",
          "name": "timestamp",
          "type": "uint256"
        }
      ],
      "name": "SwapIntentSubmitted",
      "type": "event"
    },
    {
      "inputs": [],
      "name": "asyncNonceEngine",
      "outputs": [
        {
          "internalType": "contract AsyncNonceEngine",
          "name": "",
          "type": "address"
        }
      ],
      "stateMutability": "view",
      "type": "function"
    },
    {
      "inputs": [
        {
          "internalType": "bytes32",
          "name": "_intentId",
          "type": "bytes32"
        }
      ],
      "name": "cancelSwap",
      "outputs": [],
      "stateMutability": "nonpayable",
      "type": "function"
    },
    {
      "inputs": [
        {
          "internalType": "bytes32",
          "name": "_intentId",
          "type": "bytes32"
        },
        {
          "internalType": "uint256",
          "name": "_volume",
          "type": "uint256"
        }
      ],
      "name": "executeSwap",
      "outputs": [],
      "stateMutability": "nonpayable",
      "type": "function"
    },
    {
      "inputs": [],
      "name": "getAggregateMetrics",
      "outputs": [
        {
          "internalType": "uint256",
          "name": "volume",
          "type": "uint256"
        },
        {
          "internalType": "uint256",
          "name": "count",
          "type": "uint256"
        }
      ],
      "stateMutability": "view",
      "type": "function"
    },
    {
      "inputs": [
        {
          "internalType": "bytes32",
          "name": "_intentId",
          "type": "bytes32"
        }
      ],
      "name": "getSwapIntent",
      "outputs": [
        {
          "components": [
            {
              "internalType": "bytes",
              "name": "encryptedIntent",
              "type": "bytes"
            },
            {
              "internalType": "uint256",
              "name": "timestamp",
              "type": "uint256"
            },
            {
              "internalType": "uint256",
              "name": "asyncNonce",
              "type": "uint256"
            },
            {
              "internalType": "bool",
              "name": "executed",
              "type": "bool"
            },
            {
              "internalType": "bool",
              "name": "cancelled",
              "type": "bool"
            }
          ],
          "internalType": "struct EncryptedSwap.SwapIntent",
          "name": "",
          "type": "tuple"
        }
      ],
      "stateMutability": "view",
      "type": "function"
    },
    {
      "inputs": [],
      "name": "owner",
      "outputs": [
        {
          "internalType": "address",
          "name": "",
          "type": "address"
        }
      ],
      "stateMutability": "view",
      "type": "function"
    },
    {
      "inputs": [
        {
          "internalType": "bytes",
          "name": "_encryptedIntent",
          "type": "bytes"
        },
        {
          "internalType": "uint256",
          "name": "_asyncNonce",
          "type": "uint256"
        }
      ],
      "name": "submitSwapIntent",
      "outputs": [
        {
          "internalType": "bytes32",
          "name": "",
          "type": "bytes32"
        }
      ],
      "stateMutability": "nonpayable",
      "type": "function"
    },
    {
      "inputs": [],
      "name": "totalSwapCount",
      "outputs": [
        {
          "internalType": "uint256",
          "name": "",
          "type": "uint256"
        }
      ],
      "stateMutability": "view",
      "type": "function"
    },
    {
      "inputs": [],
      "name": "totalSwapVolume",
      "outputs": [
        {
          "internalType": "uint256",
          "name": "",
          "type": "uint256"
        }
      ],
      "stateMutability": "view",
      "type": "function"
    }
  ],
  "bytecode": "0x608060405234801561001057600080fd5b50604051610abf380380610abf83398101604081905261002f91610062565b60008054336001600160a01b031991821617909155600180549091166001600160a01b0392909216919091179055610092565b60006020828403121561007457600080fd5b81516001600160a01b038116811461008b57600080fd5b9392505050565b610a1e806100a16000396000f3fe608060405234801561001057600080fd5b50600436106100935760003560e01c80638c4b0128116100665780638c4b01281461010d5780638da5cb5b1461012d578063d4d3e14114610140578063d541beb314610149578063fda97daf1461015e57600080fd5b806301b84065146100985780631121e617146100b457806336050a5a146100df57806389da5d8b146100fa575b600080fd5b6100a160035481565b6040519081526020015b60405180910390f35b6001546100c7906001600160a01b031681565b6040516001600160a01b0390911681526020016100ab565b600354600454604080519283526020830191909152016100ab565b6100a16101083660046106a5565b610171565b61012061011b36600461071d565b61038e565b6040516100ab9190610736565b6000546100c7906001600160a01b031681565b6100a160045481565b61015c61015736600461071d565b6104a8565b005b61015c61016c3660046107c3565b610591565b6000803383868660405160200161018b94939291906107e5565b60408051601f19818403018152918152815160209283012060008181526002909352912060010154909150156101ff5760405162461bcd60e51b8152602060048201526015602482015274496e74656e7420616c72656164792065786973747360581b604482015260640160405180910390fd5b600154604051630c77b73560e11b815233600482015260248101859052604481018390526001600160a01b03909116906318ef6e6a906064016020604051808303816000875af1158015610257573d6000803e3d6000fd5b505050506040513d601f19601f8201168201806040525081019061027b9190610818565b506040518060a0016040528086868080601f01602080910402602001604051908101604052809392919081815260200183838082843760009201829052509385525050426020808501919091526040808501899052606085018490526080909401839052858352600290525020815181906102f690826108e0565b5060208201516001820155604080830151600283015560608301516003909201805460809094015115156101000261ff00199315159390931661ffff19909416939093179190911790915551819033907f07ff92e58f9286c28f101561b248790c852e3df4b31b527ca169901642f030d19061037e9087904290918252602082015260400190565b60405180910390a3949350505050565b6103c46040518060a001604052806060815260200160008152602001600081526020016000151581526020016000151581525090565b60008281526002602052604090819020815160a081019092528054829082906103ec90610857565b80601f016020809104026020016040519081016040528092919081815260200182805461041890610857565b80156104655780601f1061043a57610100808354040283529160200191610465565b820191906000526020600020905b81548152906001019060200180831161044857829003601f168201915b5050509183525050600182015460208201526002820154604082015260039091015460ff8082161515606084015261010090910416151560809091015292915050565b6000546001600160a01b031633146104d3576040516330cd747160e01b815260040160405180910390fd5b60008181526002602052604081206001810154909103610506576040516361ae648360e01b815260040160405180910390fd5b600381015460ff168061052257506003810154610100900460ff165b15610540576040516397d96e6760e01b815260040160405180910390fd5b60038101805461ff00191661010017905560405182907f84c95b67a6f5f686d8b5abe0f1801e659488c6cc863c1c24d21bde9c7f5779de906105859042815260200190565b60405180910390a25050565b6000546001600160a01b031633146105bc576040516330cd747160e01b815260040160405180910390fd5b600082815260026020526040812060018101549091036105ef576040516361ae648360e01b815260040160405180910390fd5b600381015460ff168061060b57506003810154610100900460ff165b15610629576040516397d96e6760e01b815260040160405180910390fd5b6003808201805460ff19166001179055805483919060009061064c9084906109b6565b909155505060048054906000610661836109cf565b9190505550827f952bb7d1c7a345d2df8613a150abc3a4d022ee1245a206f56ab7312ae82e7b134260405161069891815260200190565b60405180910390a2505050565b6000806000604084860312156106ba57600080fd5b833567ffffffffffffffff808211156106d257600080fd5b818601915086601f8301126106e657600080fd5b8135818111156106f557600080fd5b87602082850101111561070757600080fd5b6020928301989097509590910135949350505050565b60006020828403121561072f57600080fd5b5035919050565b60006020808352835160a08285015280518060c086015260005b8181101561076c5782810184015186820160e001528301610750565b50600060e08287010152828601516040860152604086015160608601526060860151925061079e608086018415159052565b608086015180151560a08701529250601f01601f19169390930160e001949350505050565b600080604083850312156107d657600080fd5b50508035926020909101359150565b6bffffffffffffffffffffffff198560601b16815283601482015281836034830137600091016034019081529392505050565b60006020828403121561082a57600080fd5b8151801515811461083a57600080fd5b9392505050565b634e487b7160e01b600052604160045260246000fd5b600181811c9082168061086b57607f821691505b60208210810361088b57634e487b7160e01b600052602260045260246000fd5b50919050565b601f8211156108db57600081815260208120601f850160051c810160208610156108b85750805b601f850160051c820191505b818110156108d7578281556001016108c4565b5050505b505050565b815167ffffffffffffffff8111156108fa576108fa610841565b61090e816109088454610857565b84610891565b602080601f831160018114610943576000841561092b5750858301515b600019600386901b1c1916600185901b1785556108d7565b600085815260208120601f198616915b8281101561097257888601518255948401946001909101908401610953565b50858210156109905787850151600019600388901b60f8161c191681555b5050505050600190811b01905550565b634e487b7160e01b600052601160045260246000fd5b808201808211156109c9576109c96109a0565b92915050565b6000600182016109e1576109e16109a0565b506001019056fea2646970667358221220f932a37d1ab15bbd2a2551403a42347e493675d00f00e77c9fb755434f4bb55064736f6c63430008140033",
  "linkReferences": {},
  "deployedLinkReferences": {}
}